:020000040800F2
:10000000B8C20020DD01000867660008615E0008D4
:1000100065660008AD2C00088F9100080000000004
:100020000000000000000000000000002969000836
:10003000CB2E000800000000756600082B69000840
:10004000F7010008F7010008F7010008F7010008B0
:10005000F7010008F7010008F7010008F7010008A0
:10006000F7010008F7010008F7010008F701000890
:10007000F7010008F7010008F7010008F701000880
:10008000F7010008F7010008F7010008F701000870
:10009000F7010008F7010008F7010008F701000860
:1000A000F7010008F7010008F7010008F701000850
:1000B000F7010008F7010008F7010008F701000840
:1000C000F7010008F7010008F7010008F701000830
:1000D000F7010008F7010008F7010008F701000820
:1000E000F7010008F7010008F7010008F701000810
:1000F000F7010008F7010008F7010008F701000800
:10010000F7010008F7010008F7010008F7010008EF
:10011000F7010008F7010008F7010008F7010008DF
:10012000F7010008F7010008F7010008F7010008CF
:10013000C92D0008F7010008F7010008F7010008C1
:10014000F7010008F7010008F701000869660008D8
:10015000F7010008F7010008D52D0008F701000895
:10016000F7010008F7010008F7010008F70100088F
:10017000F7010008F7010008F7010008000000007F
:10018000F7010008F7010008F7010008F70100086F
:10019000F7010008F7010008F7010008F70100085F
:1001A000F7010008F7010008F7010008F70100084F
:1001B000F7010008F7010008F7010008F70100083F
:1001C000F7010008F7010008DFF80CD000F0AAF8EA
:1001D0000048004755B60008B8C2002006488047CE
:1001E00006480047FEE7FEE7FEE7FEE7FEE7FEE71C
:1001F000FEE7FEE7FEE7FEE7A9690008C90100087F
:100200002DE9F05F0546002092469B46884606464B
:10021000814640241BE0284641464746224600F0DE
:1002200071F853465A46C01A914110D311461846E8
:10023000224600F058F82D1A67EB01084F46224677
:100240000120002100F04FF817EB00094E41201E5D
:10025000A4F10104DFDC484631462A464346BDE8A6
:10026000F09F40EA01039B0703D009E008C9121F71
:1002700008C0042AFAD203E011F8013B00F8013B60
:10028000521EF9D27047D2B201E000F8012B491E8C
:10029000FBD270470022F6E710B513460A46044623
:1002A0001946FFF7F0FF204610BD30B505462A4637
:1002B0000B4612F8010B13F8014B08B1A042F8D01D
:1002C0001CB1002802D06D1CF1E7284630BD10B5E6
:1002D000044604E00B7800F8013B03B1491C521EB0
:1002E000F8D2204610BD202A04DB203A00FA02F1A1
:1002F000002070479140C2F1200320FA03F3194314
:1003000090407047202A04DB203A21FA02F00021B5
:10031000704721FA02F3D040C2F120029140084315
:1003200019467047064C074D06E0E06840F00103AF
:1003300094E8070098471034AC42F6D3FFF748FF23
:10034000ECF300080CF4000870B58C1810F8015B91
:1003500015F0070301D110F8013B2A1106D110F85E
:10036000012B03E010F8016B01F8016B5B1EF9D162
:100370002B0705D40023521E0DD401F8013BFAE7E8
:1003800010F8013BCB1A921C03E013F8015B01F853
:10039000015B521EF9D5A142D8D3002070BD0000E8
:1003A00010B52F4C20780128204615D002F07AFB9A
:1003B000207801280FD160882A49A0F16502172A08
:1003C00010D2A289D42A0DD9FC2A0BD2087803288E
:1003D00006D00C20087010BDBDE8104002F062BBD2
:1003E0000B20F7E7A0F5A372272A06D2A289D42A08
:1003F00003D9FC2A01D20620ECE7A0F1FB02272A50
:1004000006D2A289D42A03D9FC2A01D20720E1E727
:10041000A0F1AB02272A06D2A289D42A03D9FC2A4A
:1004200001D20A20D6E7A0F11502312A06D2A2890C
:10043000D42A03D9FC2A01D20E20CBE7A0F29310D4
:100440003128C8D2A089D42803D9FC2801D20D2094
:10045000C0E79B28BFD9B328BDD21020BAE700005F
:10046000400A0020AC00002010B528B1012808D1B6
:10047000BDE8104005F032BF05F08AFF01490020B9
:10048000087010BDAD0000200148008870470000D2
:10049000B0000020704703F069BA0000014805F081
:1004A00039BE00009C7A00203EB50224002202AB37
:1004B000ADF80820CDE900340A4623460146064837
:1004C00005F0E2FEBDF808000102000AC1F30721B1
:1004D00040EA01203EBD00009C7A002037B582B082
:1004E0000A46022404ABBDF81010CDE900342346BF
:1004F0000D02090A2D0A41EA0521ADF81010014646
:10050000024805F0D6FE05B030BD00009C7A002000
:10051000002010B502F068F902F00EF801204FF04B
:10052000404102F05BF8012002F030F901F052FC8A
:1005300005F0F0FE09A005F0F7FE10494FF0FF307E
:1005400008600FA008F0D0FE14A008F0CDFE18A09F
:1005500008F0CAFEBDE8104000F08EB9342D4749BE
:100560005454202D3E2053455053202D3E20507290
:100570006163746963612032000000003001002073
:1005800055534220486F7374206C696272617279AE
:1005900020737461727465642E0A00005374617272
:1005A00074696E6720417564696F2044656D6F00E2
:1005B0000A00000070B50E490E4802F0DFFC0E4C38
:1005C0004FF0FF3550B1280420600CA008F08CFEDD
:1005D0000CA008F089FE0120256070BD6FF47F003B
:1005E000206011A008F080FE0020256070BD000092
:1005F000B2000020D4F30008300100204552524FD1
:10060000523A200043616E6E6F74204C696E6B200D
:10061000555342207769746820492F4F20647269CE
:1006200076657221200A0000494E464F203A205537
:100630005342206469736B206C696E6B656420772C
:1006400069746820492F4F20647269766572212091
:100650000A0000002DE9F04F684A8FB00BABDFF8BD
:1006600098A1002507CA83E807009AF8000002282D
:100670003BD1634C4FF00108601E022622784FF0F8
:10068000FF3901785F4F052ADFF87CB12DD2DFE812
:1006900002F0032D5769900084F800805B4802F057
:1006A00089F80D2001F03EFB0E2001F03BFB0F20EE
:1006B00001F038FB6FF47F0002F08AF803210BA8E9
:1006C00001F034FE384602F083F81422E8211001CC
:1006D00001F0CAFD4FF0FF2002F07AF84C4802F01A
:1006E00069F80F204BA101F0F3FB73E0684602F0BC
:1006F000D9F99DF8000001286CD1BDF80200A0F2E4
:100700002D11272907D2BDF80C10D42903D9FC29B3
:1007100001D2042009E07E38272808D2BDF80C0059
:10072000D42804D9FC2802D20320207000E02670CF
:10073000684602F0B7F99DF800000028F8D149E0BA
:1007400000F0D2FE58B140A05E46CBF8007008F031
:10075000CBFD3FA008F0C8FDC6F8009024E084F867
:10076000008037E0804621B100F096F8012840D0A3
:1007700030E000F0B9FE78B133A05E46CBF80070EF
:1007800008F0B2FD32A008F0AFFD0020C6F80090DE
:10079000FFF76AFE257001E088F8006005F09EFD15
:1007A000002000F0E5F913E00020FFF75DFE257062
:1007B00010E031B100F05EFB01281AD0022818D0F9
:1007C00008E0067000F0F8FE05F088FD00F0BEFDC0
:1007D0000128E9D09AF80010032907D100208AF8EF
:1007E0000050FFF741FE022001F05AFA0FB0BDE8B9
:1007F000F08F05F073FDD7E7DC000020F4C400089B
:10080000AD0000200000FFFF30010020100100209B
:100810001801002055736520746F75636820736339
:100820007265656E20746F20656E74657220706CE1
:1008300061796261636B206F72207265636F7264AD
:10084000206D656E750000004552524F523A2000EF
:100850005468657265206973206E6F205741562079
:1008600066696C65206F6E20746865205553422060
:100870004B65792E0A000000064810B540684BF61B
:100880008032C1B2042001F0CFF8002800D001204E
:1008900010BD0000B80000202DE9FF5F9C4F00262E
:1008A0004FF6FF7A9B4C0325B0466FF47F0B3978E7
:1008B0004FEA0A49112950D2DFE801F04F4F4F09A2
:1008C0004F4F717B4F4F6193E4FDFC4FB500DFF854
:1008D0004892A9F10805D9F804006968814204D357
:1008E000022001F0DDF90620387028784FF480529C
:1008F000012802D0022833D009E0874803AB87499A
:100900002C3031E068682E70039908446860D9F88B
:100910001C006A68A168B2FBF0F081421DD03C2146
:10092000A060B0FBF1F3B0FBF1F201FB13037CA17B
:10093000684608F0E9FC584601F04AFF01F0CEFD98
:10094000C18803236A4640F207100AEAC10101F098
:100950005BFA4FF0FF3001F03BFFFFF721FDB7E0FE
:100960006D4803AB71492C3009F014FF0028C9D041
:10097000022001F095F9012004B0BDE8F09F48463F
:1009800001F026FF2823D4211A46AA2001F058FDA1
:10099000022001F085F94FF001083E7098E0FFF762
:1009A00073FD2188491C09B2218088420BDC268016
:1009B00009E02088401E00B22080002803DAFFF7FB
:1009C00063FD401E2080022001F06AF9207800F0CB
:1009D000CFF8606800287BD16068C0B201F052F99E
:1009E00076E0584601F0F4FE01F078FDC08803235C
:1009F0004FA200EBC00081B2FA2001F005FA484690
:100A000001F0E6FE28230F22D421642001F018FD16
:100A100028230F22D421782001F012FD01F0DAF80A
:100A20000120387054E0584601F0D2FE01F056FD26
:100A3000C088032341A200EBC00081B2FA2001F07C
:100A4000E3F9484601F0C4FE18234FF4C97032227E
:100A50009B2101F0A9FB01F041FD81463A4801F0DC
:100A6000A9FE01F03BFDC1880223182037A201EB4B
:100A700081010AEA410101F0C7F96660484601F0C8
:100A800099FE33E0584601F0A3FE01F027FDC0882F
:100A9000032330A200EBC00081B2FA2001F0B4F9C8
:100AA00028230F22D421642001F0CAFC28230F221E
:100AB000D42101E014E00DE0782001F0C1FC01F048
:100AC000BBF8606818B96068C0B201F0DBF83D702F
:100AD000404651E760685A2808D860680A3004E048
:100AE00060680A2802D360680A3860606068C0B233
:100AF00001F0C8F84FF0FF3001F06AFE626818A1FB
:100B0000684608F001FC0920694601F0E1F9DEE7DA
:100B1000AC000020B8000020742A00206C0A0020DD
:100B20005B253032643A253032645D006C1A002057
:100B300020205B50415553455D00000020205B4D57
:100B4000555445205D000000100100206D7574654E
:100B50000000000020205B504C4159205D00000047
:100B6000566F6C756D65203A20256C75200000006D
:100B700038B50446234809F037FBFFF785FCA0424F
:100B80003ED9204920462C3902F008FB1D482C385C
:100B900082691D484068C1B2032000F045FF10B9CA
:100BA000052001F05BF8174C00200146343C207012
:100BB000144809F03EFB4FF400551248A4F50051CB
:100BC0006B462A4609F0E6FDD0B9104903200870AB
:100BD00000F024F801F082FCC08803230CA200EB93
:100BE000C00081B2FA2001F00FF9009840B1A4F5DD
:100BF0000050294601F000F800986060002038BDE0
:100C0000012038BDA02A0020B8000020AC00002040
:100C100020205B504C4159205D00000070B54448D5
:100C200001F0C8FD0D2001F07DF80E2001F07AF8EA
:100C30000F2001F077F86FF47F05284601F0C8FD1A
:100C40003C48032101F072FB28230A22D421FA2018
:100C500001F0F6FB374803210C3801F067FB28232D
:100C60000A22D4214FF4B27001F0EAFB28230F22AC
:100C7000D421642001F0E4FB28230F22D421782022
:100C800001F0DEFB2823D4211A46AA2001F0D8FB6C
:100C900028233222D421142001F086FA01F01EFC10
:100CA000C0884FF6FF74032323A2C0EBC00004EA00
:100CB0004001182001F0A8F84FF4C97628233046E7
:100CC0003222D42101F070FA01F008FCC08802231E
:100CD0001BA2C0EBC00004EA4001182001F094F808
:100CE000281401F075FD1823304632229B2101F0B3
:100CF0005BFA01F0F3FBC088022313A200EB800033
:100D000004EA4001182001F07FF84FF0FF2001F0C5
:100D10005FFD0F4801F04EFD0F2001F003F80F209A
:100D20000CA101F0D5F82846BDE8704001F050BD97
:100D300010010020D0000020564F6C2D0000000054
:100D4000564F6C2B000000006D75746500000000AC
:100D5000180100205573652073746F7020627574DC
:100D6000746F6E20746F20657869740070B52F48B9
:100D700001F020FD0D2000F0D5FF0E2000F0D2FF85
:100D80000F2000F0CFFF6FF47F05284601F020FD13
:100D90001422E821100101F067FA28230F22D42140
:100DA0007D2001F04DFB28230F22D421912001F05A
:100DB00047FB2823D4211A46CD2001F041FB2823EC
:100DC0003222D421142001F0EFF901F087FBC08812
:100DD0004FF6FF74032316A2C0EBC00004EA4001E3
:100DE000182001F011F828234FF4C9703222D421C1
:100DF00001F0DAF901F072FBC08802230EA2C0EB09
:100E0000C00004EA4001182000F0FEFF4FF0FF2070
:100E100001F0DEFC0A4801F0CDFC0F2009A101F031
:100E200057F82846BDE8704001F0D2BC1001002000
:100E3000564F6C2D00000000564F6C2B0000000038
:100E400018010020557365207265636F726420621B
:100E50007574746F6E20746F207374617274207275
:100E600065636F72642C2073746F7020746F2065DB
:100E7000786974002DE9FF5F05264FF0000A4FF0F6
:100E8000010BFE4DDFF8FC834FF6FF79CDF80CA087
:100E90005746FB4C297898F800000F2920D2DFE84C
:100EA00001F01FF11F1F08682B2B1F1FF0EFEEED45
:100EB000EC0001287ED0F34801F0F4FD40464FF0ED
:100EC00004080178012951D14188A1F1CE02272AD5
:100ED00007D28289D42A04D9FC2A02D20A20287097
:100EE0002FE2A1F22D12272A08D28289D42A05D90D
:100EF000FC2A03D2C4F804B02E7022E2A1F115023C
:100F0000312A0CD28289D42A09D9FC2A07D20E2090
:100F100028702068052819D32068401F0FE0A1F22F
:100F2000931131290DD28089D4280AD9FC2808D2FE
:100F30000D20287020685F2808D82068401D206098
:100F400004E028780E2801D00D28C9D12268CEA14E
:100F5000684608F0D9F9072000F0E4FE072069464A
:100F600000F0B6FF2068C0B200F0DAFC85F800801F
:100F7000E7E16068E0B1C84801F02AFC1422E821EA
:100F8000100101F071F9C54801F014FC6FF0FF0089
:100F900001F01EFC01F0A2FAC1880323F720C0A2D1
:100FA00001EB410109EA410100F02EFFC4F804A061
:100FB000464600E0ADE198F800000128B14805D0B0
:100FC00001F070FD3078012803D02FE001F06AFDB8
:100FD0002CE07088A0F1CE01272906D2B189D4294E
:100FE00003D9FC2901D20A201FE0A0F17E011729B4
:100FF00006D2B189D42903D9FC2901D20B2014E0EF
:10100000A0F11501312906D2B189D42903D9FC29CF
:1010100001D20E2009E0A0F29310312806D2B08947
:10102000D42803D9FC2801D20D2028709F4EA04857
:10103000D6F80C18814204D3C4F804B00A212970F0
:101040007FE196F80408012825D18E4903ABD6F834
:1010500008084FF41052583101EB4001954809F04F
:10106000BDFC80B18C4801F0B3FB0E2092A100F0D2
:101070002FFF012004B0BDE8F09FEDE0E6E0BAE00C
:101080008CE041E03BE1D6F80C18039A86F804A8FE
:101090001144C6F80C184FF47A400A46B2FBF0F03F
:1010A000A1688142CCD03C21A060B0FBF1F3B0FB41
:1010B000F1F201FB130383A1684608F025F96FF0F4
:1010C000FF0001F085FB01F009FAC08803234C46BC
:1010D0006A4609EAC00140F2071000F095FED6F812
:1010E0000C08C11700EB915079A18212684608F0F4
:1010F0000BF901F0F3F9C08803236A4604EAC00142
:10110000532000F081FE1CE1022000F019FC6FF476
:101110007F07384601F05CFB1422E821100101F042
:10112000A3F83E04304601F053FB2823D4211A468D
:10113000CD2001F085F9384601F04AFB9620C4F82D
:1011400004B002F013FC5B48002109F072F868B1AA
:10115000304601F03DFB0E2057A100F0B9FE0127FB
:10116000544885F800A009F03FF8EAE045485A499C
:101170002C3008F097F843492C224E4803AB2C3111
:1011800009F02CFC40B10127304601F021FB0E2074
:1011900049A100F09DFEE3E70227E1E73E4801F0A8
:1011A00017FB28230F22D4217D2001F049F92823A1
:1011B0000F22D421912001F043F96FF47F0001F058
:1011C00007FB1422E821100101F04EF86FF0FF0038
:1011D00001F0FEFA01F082F9C1880323F7203FA253
:1011E00001EB410109EA410100F00EFE00F07EFB37
:1011F00085F800B0A5E06FF47F0001F0E9FA28233C
:101200000F22D4217D2001F01BF928230F22D421A5
:10121000912001F015F9204801F0DAFA1422E821B2
:10122000100101F021F86FF0FF0001F0D1FA01F098
:1012300055F9C1880323F72019A201EB410109EAFE
:10124000410100F0E1FD00F063FB55E620685F28F6
:1012500008D82068401D04E02068052802D32068D3
:10126000401F2060226808A1684608F04DF86FF022
:10127000FF0001F0ADFA072036E00000AC000020CE
:10128000E00000200C300020566F6C756D65203A30
:1012900020256420000000000000FFFF180100204E
:1012A00020205B5245434F52445D00006470002093
:1012B000004C1D00A02A00205245434F52442046B6
:1012C00041494C005B253032643A253032645D0080
:1012D000253464204B420000742A002020205B50FB
:1012E000415553455D20000000F01CFD0720694674
:1012F00000F0EEFD2068C0B200F012FBFCE5012812
:10130000444606D0104801F0CDFB2078012804D0D7
:1013100017E00D4801F0C6FB13E061880C22A1F232
:101320002D10272804D2A089D42801D9FC2807D35E
:101330007E39172905D2A089D42802D9FC2800D2E9
:101340002A70384696E600000C30002070B5444EF6
:1013500090B0002464200F9430600A22444841A1D8
:1013600009F0A0F8002879D14FF47A554149284670
:1013700007F00EFF3F492C223D480FAB09F02EFB32
:1013800000286BD13C4904200870401F01F020FA6E
:1013900034A2684639A107F0B7FF042000F0C2FC70
:1013A0000420694600F094FD6FF47F0001F010FA0C
:1013B00037A12A46684607F0A7FF062000F0B2FCD6
:1013C0000620694600F084FD0222684635A107F038
:1013D0009BFF072000F0A6FC0720694600F078FD7F
:1013E000326836A1684607F08FFF072000F09AFCAC
:1013F0000720694600F06CFD34A1684607F084FFC1
:10140000082000F08FFC0820694600F061FDFFF71E
:10141000ADFC01F063F8C1884FF6FF7003232EA2E4
:1014200001EB410100EA4101F72000F0EDFC0F98CB
:1014300098B102222846102100F084F90D484FF49B
:1014400010512C3000F05AFA26480F990460C0E978
:1014500002410471002010B070BDFFE70120FAE7DF
:10146000E0000020576176652E776176000000006D
:10147000A02A002038300020AC0000205265636FA5
:101480007264696E672066696C653A202573000096
:1014900053616D706C652072617465203A2025641B
:1014A00020487A004368616E6E656C73206E756DBE
:1014B000626572203A20256400000000566F6C754A
:1014C0006D65203A202564200000000046696C65A7
:1014D0002053697A65203A0020205B2020202020BC
:1014E0005D000000647800202DE9F041002500F047
:1014F00063F810B10320BDE8F08100F0A1F808B155
:101500000220F8E71B4EB6F8D803002830D04FF081
:10151000FF37384601F05CF9174C18A0276007F038
:10152000E3FEB8466FF47F0714E01AA0276007F0C7
:10153000DBFE05EBC500276000EB45103044401C86
:1015400007F0D2FE15A0276007F0CEFE6D1CC4F890
:101550000080EDB2B6F8D803A842E6D8454640462A
:1015600001F036F90EA0256007F0BEFE0020C2E7AC
:101570000120C0E7A40300203001002061756469E8
:101580006F2066696C65287329205B524F4F545D4C
:101590003A0A0A002020207C5F5F00000A00000059
:1015A0000A456E64206F662066696C6573206C69FD
:1015B00073742E0A0000000070B50E4900220E4818
:1015C00008F044FF0D4C4FF0FF3550B12804206067
:1015D0000BA007F089FE0CA007F086FE0120256015
:1015E00070BD6FF47F0020600EA007F07DFE00202C
:1015F000256070BDB2000020700100203001002085
:101600004552524F523A200043616E6E6F7420492A
:101610006E697469616C697A6520466174467321EC
:10162000200A0000494E464F203A20466174467316
:1016300020496E697469616C697A656421200A00C9
:1016400070B5D4B0294946A809F04EF8284D0400D9
:101650004FF00000A5F8D80338D03CE046A8694612
:1016600009F042F9040036D19DF8160098B32E28EF
:101670002CD0B5F8D8030DF11606182826D29DF8FF
:101680000800C00622D41BA13046FEF70EFE20B98A
:1016900019A13046FEF709FEC0B1B5F8D8032822DB
:1016A00000EBC00101EB401031462844401CFEF71E
:1016B0000EFEB5F8D813012001EBC10202EB411177
:1016C0006854B5F8D803401CA5F8D8030B4806F0B9
:1016D000A9F80028C2D10548B5F8D813801E0180AA
:1016E00046A808F095FD54B0204670BDB200002019
:1016F000A40300207761760057415600542D002046
:10170000704700000E48002210B501234FF490549A
:10171000D0F8001801F59051C0F80018A14204D18A
:1017200080F80438C0F8082810BDB1F5105FFBD36D
:1017300080F80438C0F80848C0F8002810BD000040
:101740006470002013460A4601464FF4007000F012
:1017500001B800002DE9F041B0F5407F0F464FF48D
:10176000007405464FF0010601D0A54232D105F0C4
:1017700023F81A480022394600F01CF91749184886
:101780000860084603F088FE38B91448002100F0CC
:1017900085F91248002100F029F8A54201D10A215B
:1017A00000E005213A46012005F014F80D4C3420E4
:1017B000A1688847A0F5094194390BD1E16A34202A
:1017C00088470948002664223B4629464460342065
:1017D0002468A0473046BDE8F0810000F87800207A
:1017E000245C014040000020EC0000202DE9F04185
:1017F0000646384886B0016841F40001016000687F
:10180000344D00F400000590143D286840F040007D
:10181000286028680024022700F040004FF4806808
:10182000CDF80080CDE901740A210397CDE90410B9
:101830002948694602F0ACF8286840F0800028602A
:1018400028686946CDE9024700F080000590B8039A
:10185000CDE90004214802F09BF8286840F480009C
:101860002860286800F4800005901D483168814296
:101870001DD11C49C2144FF0030C970143144C6056
:1018800085158C60C1E90348C1E90874C1E90AC43F
:1018900015480C6341F8140B124881E82C001439E8
:1018A00031678E6301F0B1FE0E4801F0AFFF0022F8
:1018B0000F21462002F0CAFE462002F0B9FE0022A7
:1018C0000F21282002F0C2FE282002F0B1FE06B04F
:1018D000BDE8F0814438024000180240001C02407C
:1018E000245C0140DC790020B8640240024810B555
:1018F00003F020FD002010BDF87800208AB20146D8
:10190000024810B503F0C2FE002010BDF878002098
:10191000024810B503F021FD002010BDF87800202A
:1019200070B5064D044621466868026A3420904727
:1019300008B1012070BD2C80002070BDEC0000209B
:1019400010B50446094803F023FD094821464068C4
:1019500082693420904708B1012010BD012C02D1CA
:10196000012002F003F8002010BD0000F8780020EC
:10197000EC0000200E48002210B501234FF49054D3
:10198000D0F8001801F59051C0F80018A14204D118
:1019900080F80438C0F8082810BDB1F5105FFBD3FB
:1019A00080F80438C0F80848C0F8002810BD0000CE
:1019B0006470002030B5A1B00C46684602F0AEFE5F
:1019C000A4F52C514FF0080211394FF480104FF458
:1019D000800116D0A4F5AC43223B12D0A4F52C43D1
:1019E000443B0ED0072401254FF4AC7310910995A8
:1019F000CDE90003CDE90342684602F0B9FF21B00A
:101A000030BD022440F2AD131325EFE7704700000C
:101A100003480078032802D1024801210170704771
:101A2000AC0000206C2A00202DE9F041012516466B
:101A30000F46804604F036FF144800223146FFF777
:101A4000B9FF124912480860084603F025FD18B98D
:101A50000E48002100F022F8304604F031FF0D4C12
:101A60003420A1688847A0F5094194390BD1E16A77
:101A7000342088470848002533463A4641464460AA
:101A800034202468A0472846BDE8F08174780020FF
:101A9000045C014040000020EC0000202DE9F04FE4
:101AA0000646474887B0016841F4000101600068BC
:101AB000434F00F400000590143F386840F48070F4
:101AC0003860386800F480700590386840F48070A1
:101AD0003860386800F480700590386840F4807091
:101AE000386038684FF002080325DFF8D8B000F4FA
:101AF00080704FF00A098021CDE900180024694662
:101B0000CDE90490CDE90245584601F041FF20217E
:101B1000584602AACDE90018694682E8300201F071
:101B200037FF02AA4FF0400A6946584682E8300261
:101B3000CDE900A801F02CFF10226946CDE900286C
:101B400002AA584682E8300201F022FF386840F4C9
:101B500080003860386800F4800005901A483168C9
:101B6000814221D1194903156A06C7144FF48078C0
:101B70004A600420C1F808A0DA01C1E90343C1F8B2
:101B80001C804FF4005CC1E90A54114B0C630B60DC
:101B9000C1E90820C1E9057CF16608468E6301F0C1
:101BA00034FD0A4801F032FE00220E213C2002F0F2
:101BB0004DFD3C2002F03CFD07B0BDE8F08F000079
:101BC0004438024000200240045C01407C7900203F
:101BD00070640240064810B54068016934208847A7
:101BE00008B1012010BD034803F0A4FB002010BD84
:101BF000EC0000207478002070B505460C488AB2CD
:101C00000C4629464068C3683420984708B1012033
:101C100070BDB4F5003F01D2600801E04FF6FF70DF
:101C2000294682B2034803F08FFD002070BD0000FA
:101C3000EC00002074780020064810B54068416927
:101C40003420884708B1012010BD034803F085FB0C
:101C5000002010BDEC0000207478002010B5084C66
:101C600021680A6822F480320A602066204603F068
:101C700017FC2068016841F48031016010BD00004C
:101C800074780020054910B549680A6A0146342075
:101C90009047002800D0012010BD0000EC0000207B
:101CA00010B50446094803F073FB09482146406813
:101CB00082693420904708B1012010BD012C02D167
:101CC000012001F053FE002010BD000074780020B8
:101CD000EC00002003480078032802D102480221CA
:101CE00001707047AC0000206C2A00201CB504462F
:101CF00000F012FC034600F0FFFB02460020CDE995
:101D000000040648064C006800EB800101EBC001AE
:101D100004EB8101C96D04F07DFB1CBD04010020B2
:101D2000007D00202DE9F041134D0646134C286834
:101D300000EB400004EB800154F82070496844F83F
:101D4000201000F0D9FB82B2286800EB400004EBC1
:101D500080008068C38803FB06F081B2002000F099
:101D60006FFB286800EB400044F820703846BDE85F
:101D7000F04100F02DBD000004010020E87D0020AE
:101D80000648C02330B4082405220460610343617F
:101D9000C261C16230BC02F0EBBD0000D02C00205B
:101DA00030B40A4C0A4B246804EB440403EB84036C
:101DB0009B689C881D68E41DDB88E408203A14FBBE
:101DC00002F203FB025230BC01F080B80401002093
:101DD000E87D0020094810B50068816941F00101E3
:101DE000816101220648110301F0BEFE012205486F
:101DF000BDE81040082101F0B7BE0000007D0020C2
:101E000000200240002802402DE9F0470027044648
:101E10001546894610463A4600E0521C10F8011B50
:101E20000029FAD100F068FBDFF89CC0012B274E97
:101E3000DCF8001001EB410106EB8101896889881B
:101E4000B0FBF1F002D0022B09D104E0801A484324
:101E500004EB500002E0801A4843001B84B247F6AE
:101E6000FF71601E884200D30124E04600F044FB6D
:101E70000146D8F8000000EB400006EB80008068C7
:101E8000808807FB101189B2814213D3012012E030
:101E900049462046FFF784FFD8F800007F1CBFB2F8
:101EA0006D1C00EB400006EB8000806880882044B9
:101EB00084B2DBE700202A780AB1012100E000218A
:101EC0000842E5D1BDE8F08704010020E87D00204C
:101ED0000A46034610B500F001FBC088BDE810407B
:101EE0005843032381B20020FFF78EBF2DE9FF4F37
:101EF00082461446032089460025A0EB440878E07A
:101F00003E4EA9EB040B3E4F0AEB0500316801EB96
:101F1000410157F821201FFA8BF1039080B200F0A5
:101F200011F930681FFA8BF100EB400057F82020C0
:101F3000AAEB0500029080B200F004F93068A9EB2A
:101F4000050B1FFA8BF100EB400057F820200AEB3D
:101F50000400019080B200F0F5F830681FFA8BF1B0
:101F600000EB400057F82020AAEB0400009080B25C
:101F700000F0E8F8316809EB040B039801EB41012C
:101F800080B257F821201FFA8BF100F0DBF830689F
:101F90001FFA8BF100EB400057F82020029880B226
:101FA00000F0D0F8326809EB050B01981FFA8BF1AD
:101FB00002EB420280B257F8222000F0C3F83268E8
:101FC0001FFA8BF1009802EB420280B257F82220F0
:101FD00000F0B8F8B8F1000F04DA08EB850000F162
:101FE000060805E0291B641E08EB810000F10A08C1
:101FF0006D1CA54284D9BDE8FF8F000004010020BC
:10200000E87D00207CB51C4B06460D461B4C18682D
:1020100000EB800101EBC00004EB8000806C022823
:102020001BD000F069FA196800FB056001EB81051F
:1020300005EBC10104EB8101C96D01EB800118685A
:102040000E4D0024E83500EB400355F82330CDE970
:102050000043012304F0DEF97CBD00F04DFA19685D
:1020600000FB056001EB810505EBC10104EB81017B
:10207000C96D01EB4001E2E704010020007D002072
:102080002DE9FC4F151A0027002D00DC851A5C1A7B
:102090000FFA85FC002C00DCCC1A06B282424FF00D
:1020A000FF320DB220B203D301240094A24601E016
:1020B000924600928B4203D34FF0010BD94601E0C8
:1020C0009346D9464FF00001844507DB89460091CD
:1020D0000CEBDC71E04601904C102AE08A464FF090
:1020E000000B00EBD0718046CDF804C04C1020E00E
:1020F0001248A9B2124B0268B0B202EB420253F886
:10210000222000F01FF80198204404B2444508DB67
:102110000098A4EB08010CB2321805EB0B0016B2C4
:1021200005B27F1C06EB0A0105EB09000EB205B2F1
:102130003FB24745DCDDBDE8FC8F00000401002014
:10214000E87D0020164B70B506460D461868154C04
:1021500000EB800101EBC00004EB8000806C0228E2
:102160000ED000F0C9F9196805FB006001EB81038E
:1021700003EBC10104EB8101C96D41F8202070BD62
:1021800000F0BAF9196805FB006001EB810303EB6D
:10219000C10104EB8101C96D21F8102070BD000060
:1021A00004010020007D00202DE9F0411C46164668
:1021B0000D460746FFF726FF2819324681B23846FA
:1021C000FFF720FF22462946384600F009F8B819E3
:1021D00022462946BDE8F04180B200F001B8000077
:1021E0007CB51F4C05460B461E4E206800EB800157
:1021F00001EBC00006EB8000806C022821D000F0CB
:102200007BF9216800FB035001EB810303EBC10163
:1022100006EB8101C96D01EB800500BF00F06CF990
:102220002468401E0F4BE83304EB440153F821109F
:1022300013460122CDE900012946204604F0EAF8C0
:102240007CBD00F059F9216800FB035001EB8103CC
:1022500003EBC10106EB8101C96D01EB4005DDE730
:1022600004010020007D00202DE9F74FDFF8B49035
:1022700014460320DFF8B0A0A0EB44060F4600256B
:102280009046D9F8000082B000EB40015AF82100D6
:1022900000F09EFA4FF6FF7B31E08CB102980BEA1A
:1022A00044027B19001BCDE9000299B280B2FFF70E
:1022B000A9FE0098791B89B2019A80B2FFF7A2FEAD
:1022C0008DB102980BEA45023B1B401BCDE9000291
:1022D00099B280B2FFF796FE0098391989B2019A37
:1022E00080B2FFF78FFE002E03DA06EB8506B61DDF
:1022F00004E0281B641E06EB80060A366D1CA5420E
:10230000CBD9D9F8000000EB40015AF8210000F0C9
:102310005FFA029805B042463946BDE8F04FFFF734
:10232000E5BD000004010020E87D00202DE9F04F0C
:1023300085B003880F4641880025044601201E46CB
:102340000A46039518E000BF34F920C09C4501DA25
:102350001FFA8CF3B44501DD1FFA8CF604EB800CF8
:10236000BCF902C08C4501DA1FFA8CF1944501DDFD
:102370001FFA8CF2401C00B2B842E5DB022F5CD39E
:102380005018B4F900109A190291B4F902B0C0F3D0
:102390004F0842F34F062BE0B4F80290B2B2B4F902
:1023A0000600B4F800A01FFA89F3039080B234F954
:1023B000045FCDE90008A9B204901FFA8AF000F08A
:1023C0008DFE04981FFA89F3AAB2B1B2CDE900805C
:1023D0001FFA8AF000F082FE1FFA89F104981FFAB2
:1023E0008AF24346CDE90001A9B2B0B200F076FE10
:1023F0007F1E3F043F0CCFD103981FFA8BF3B2B27C
:1024000084B20298A9B280B2CDE9004800F066FE1D
:1024100002981FFA8BF3AAB2B1B280B2CDE9008460
:1024200000F05CFE1FFA8BF04346A9B2CDE90040F4
:10243000029882B2B0B200F051FE05B0BDE8F08F54
:102440002DE9FC419846234B0746234E15460C4682
:10245000186800EB400056F8200000F0B9F9186841
:10246000A6F1E80200EB800101EBC00002EB800066
:10247000806C02281FD000F03FF8196800FB047040
:1024800001EB810404EBC10102EB8101C96D01EB99
:10249000800400BF00F030F8411B1868434600EB91
:1024A000400256F82220CDE900122A46214603F0C8
:1024B000B1FFBDE8FC8100F01FF8196800FB047053
:1024C00001EB810404EBC10102EB8101C96D01EB59
:1024D0004004DFE704010020E87D002004480549AE
:1024E000006800EB400001EB80008068704700004E
:1024F00004010020E87D00200548006800EB800111
:1025000001EBC000034901EB8000006E7047000042
:1025100004010020007D00200548006800EB8001D8
:1025200001EBC000034901EB8000406E70470000E2
:1025300004010020007D00202DE9F041224C2820DC
:10254000092140F21B1604F1140840F2152535222A
:1025500040F21D1C0B2340F2352788E8EF100021C4
:102560002046FFF70DFC4FF4F07222664FF488719D
:102570006166002084F8340084F8350084F8360061
:102580006060A060114AE06022602061204601F096
:10259000CAFF18B90021204600F05CF80A4801F093
:1025A000C5FF01220A48110301F0DEFA09480122A1
:1025B000082101F0D9FA00F03FF9074800F0FAF8D5
:1025C0000020BDE8F0810000007D0020006801408F
:1025D00000200240002802400801002030B58DB0E4
:1025E0000A46002304460093FFF786FFCDE9010366
:1025F000FFF792FFFF21039007208DF830300992FA
:102600004FF4C0658DF83130CDE9043106938DF873
:102610003230CDE90750FFF76FFF0A90FFF77CFFDC
:102620000B9022460948694601F054FF074904EB24
:1026300044004FF0FF34E83101EB80022306546080
:10264000034C946041F820300DB030BD007D002077
:10265000080100204748F0B5016887B041F080616B
:102660000160006800F080600590424814380168FD
:1026700041F400010160016801F400010591016865
:1026800041F010010160016801F01001059101683D
:1026900041F040010160016801F0400105910168CD
:1026A00041F480710160016801F480710591016855
:1026B00041F400710160016801F400710591016845
:1026C00041F480610160016801F480610591016855
:1026D00041F480710160016801F480710591016825
:1026E00041F480610160006802240E2500F48060DE
:1026F00005901020CDE9000402A8002180E83200F6
:102700001D48694601F044F9E60269460920049033
:102710001A48CDE9006401F03BF9194F4FF46640C7
:10272000CDE9000469463846049501F031F94EF6CA
:10273000FF706946CDE900041248049501F028F9BC
:102740000495F720104D6946CDE90004284601F0B4
:102750001FF9012469463846CDE9006401F018F9F3
:1027600008206946CDE90004284601F011F907B0B8
:10277000F0BD000044380240001002400018024042
:102780000020024000240240002802400149086065
:1027900070470000040100200449054A096801EB64
:1027A000410102EB810148607047000004010020F4
:1027B000E87D00200449054A096801EB410102EB6C
:1027C000810188607047000004010020E87D00203E
:1027D0000349044A096801EB410142F821007047AE
:1027E00004010020E87D002030B5002887B01BD10F
:1027F0000F490E4D086840F4807008600868032295
:102800000C4C00F48070059001202168CDE9001087
:10281000CDE902026946284601F0BAF82088002274
:1028200081B2284601F0A0F907B030BD0020024077
:1028300030380240B8C800081B4802222DE9F04198
:1028400000F13401174E07230660042581E82C00AF
:10285000CB6000240A61D7014A6110238A6191028A
:1028600044604026C0E902454A00C0E90741C0E98A
:1028700009241030002180E8C800103800F05EF80C
:1028800009490948343102F0BDFF084D10B101205B
:10289000287000E02C7040F2036000F009F82878FE
:1028A000BDE8F081400100A01C7C00200001002058
:1028B0002DE9F843204C102700254FF6FF7801261C
:1028C000009521468146C4E90067C4E90265A1F18B
:1028D0005000424602F0CAFF012001F047F80220F2
:1028E0002146C4E90007C4E90265A1F1500042464F
:1028F00002F0BCFF03214246C4E90017082021462C
:10290000C4E90205A1F1500002F0B0FF4FF40870D5
:10291000009004214246C4E90260C4E90017214640
:10292000A1F1500002F0A2FFA4F150004946BDE819
:10293000F84302F089BF00006C7C0020F0B504462B
:102940004F4887B0016841F00101016000684C49BF
:1029500000F0010005900839086840F48000086024
:10296000086800F480000590086840F004000860E2
:10297000086800F004000590086840F0080008604E
:10298000086800F008000590086840F01000086032
:10299000086800F010000590086840F0200008600A
:1029A000086800F020000590086840F040000860CA
:1029B000086800F040000590086840F0800008605A
:1029C000086801210C2200F0800005900220CDE96A
:1029D000010108230093CDE903022A48694600F06B
:1029E000D7FF4CF2037000902748694600F0D0FFF3
:1029F0004FF6837000902548694600F0C9FF4FF6F6
:102A00003F0000902248694600F0C2FF48F23310B0
:102A100000902048694600F0BBFF282000901E4827
:102A2000694600F0B5FF1D494FF4007500224FF0D4
:102A3000800CEE006F004A606801C1E902C5C1E97F
:102A400004761831164EC300032581E80D00C1E954
:102A500003254A618A6141F8186D21630F488C6330
:102A600000F0D3FD0D4800F0D1FE00220F213820E8
:102A700001F0ECFD382001F0DBFD07B0F0BD0000F7
:102A80003838024000080240000C024000100240AA
:102A90000014024000180240001C02405C7B002031
:102AA000106402402DE9F04F95B0584D4FF0000BE7
:102AB00006465C46CDF844B0CDF848B0CDF84CB0F1
:102AC000A868016968788847002830707ED00024A3
:102AD0000DF1100A0DF1380908AF8BE0A8680DF16F
:102AE0002C080AEB440208EB4401436968789847D4
:102AF0002878012807D138F8142029F814203AF84A
:102B0000141027F81410810705D538F81410C1F5F2
:102B1000805129F81410410705D53AF81410C1F571
:102B2000805127F81410000707D538F8140027F84B
:102B300014003AF8141029F81410DFF8D48039F88A
:102B4000140058F82410884201D9421A00E00A1AE9
:102B50002F491FFA82FC37F81420143151F8243021
:102B60009A4201D9D31A00E09B1A9BB26344052B09
:102B700003D948F8240041F8242095F801C0BCF19D
:102B8000700F26D058F8242006EB44006B885A4377
:102B9000120B428051F82410AA885143090B8181FD
:102BA00013A8214612AB009011AA604608F0C0FAA3
:102BB000301911998175129980F82010139979B103
:102BC00001290FD0022910D0032900E01AE010D10A
:102BD0000DE006EB4401488037F814008881DFE7F8
:102BE000012100E00221C17603E00321FBE780F828
:102BF0001BB0641C3078A0423FF670AF304600F046
:102C000009F8044615B02046BDE8F08FF400002016
:102C1000347B0020F8B50446144800266946009627
:102C20003546407808F074FA0098182816D005DC6C
:102C300068B110280DD0142806D10CE01C280FD044
:102C400040280FD049280FD001252846F8BDA6629C
:102C5000FBE7012000E00220A062F6E70320FBE78B
:102C60000420F9E70520F7E70620F5E7F400002047
:102C700070B50C4C00260C4D60807020A180296836
:102C80008847696870208847512802D0032630465B
:102C900070BDA5607020607008212170E9688847C8
:102CA000F5E70000F400002010000020FEE710B55A
:102CB000FDF714FC002010BDF0B5BFF34F8FBFF33C
:102CC0006F8F1A4900200860BFF34F8FBFF36F8FDB
:102CD000174A116841F400311160BFF34F8FBFF301
:102CE0006F8F134970310860BFF34F8F081F43F691
:102CF000FF7400680D4D1035C0F34E31C0F3C903A9
:102D000004EA4116184600BF46EA80772F60401E4D
:102D1000FAD2491EF4D2BFF34F8F106840F48030CE
:102D20001060BFF34F8FBFF36F8FF0BD50EF00E027
:102D300014ED00E0F0B5059C44EA034503685C6CC3
:102D400004F040442C435C640368DA634268B2F5E3
:102D5000403F02D00068C160F0BD01F47F42856849
:102D600001F47F04224301F07F4301F47F0701F463
:102D70007F46CCB2BDB1012D16D001F47F02C1F364
:102D8000C401D20C022D11D0032D14D0320B390DF9
:102D900015011A0F45EA0123210943EA02320A43C9
:102DA00000688263F0BD1A432243F9E7B30A5B016E
:102DB00043EAC222F3E7F40ADB0F640144EA822209
:102DC00042EAC332EBE700000148C06E00F04EBC9F
:102DD000747800200148006F00F048BCF8780020AB
:102DE00001681823CAB2103AB2FBF3F2054B6FF335
:102DF0000901032A9B5CC36500D9091D816508464A
:102E000070470000EAC4000810B583694FF0C07431
:102E1000826A0146002053B1B3F5005F15D072B14C
:102E2000012A0CD0022A0AD0032A09D104E01AB1DF
:102E3000012A06D0022A03D1C96AC90100D501209E
:102E400010BDC96AA142FAD010BD002AF7D0012AEC
:102E5000F2D0022AF3D0032AF3D010BD30B50468B3
:102E6000256825F480252560046863608368402B0D
:102E7000036803D099600068C26030BD9A60006842
:102E8000C16030BD00214FEA010210B500EB8203A2
:102E9000521C0F2AC3F86C12F8D300224FF40073AF
:102EA0008418521C9A422177FAD3012201704023E0
:102EB00041708270C0F8A81202768371417680F862
:102EC0001C1280F81D22002010BD70472DE9F74F1D
:102ED00029480026DFF89CA0006800EB40000AEBC0
:102EE000800080688588C788E81D834620F0070039
:102EF000401B00F0FF0939E04FEADB01029801298D
:102F000001FB060009D0022909D0017842788378B4
:102F1000080440EA0220184303E0007801E000883A
:102F200040BA002480461AE02A1B02EB0901012066
:102F3000491E884010EA080F009800EB04020E4872
:102F4000016890B201EB410202D05AF8222002E05F
:102F50000AEB82014A680199FFF7F4F8641CAC425D
:102F6000E2D30198401C80B20190761CBE42C3D3CC
:102F7000BDE8FE8FE87D002004010020002200F063
:102F800001B800000E4B70B505469C7B0120022C59
:102F900015D29E7B002403F10C009C559E7B03EB15
:102FA000860675609D7B2A54987B421C9A733A234F
:102FB0002F22303008704B7020468A70CC7070BD64
:102FC00060010020F0B5D1E90125D1E90343D1E941
:102FD00005762A43D1F800C044EA0304D1E9073555
:102FE00042EA0402496A42EA0702BCF1010F42EADE
:102FF000060208D004681A432A430A43E30BDB03A2
:103000001A4302600BE0066844682B4326F4F84537
:1030100029430B4303606FF30E04224342600020F8
:10302000F0BD426942EA410141610020704738B574
:1030300091E81C00C9686FF01F051A4305EB4414A2
:1030400044EA41210A4300920261002038BD000099
:103050002DE9F043914691E81C006FF00F05521ED8
:103060002E0105EB03131A430B7E06EB04268C8A14
:103070002F034FEA054C0D8A32434FF07F4808EB8F
:103080000366CB68B9F1010F07EB05450CEB04545F
:103090000CD081683F1107EB03331A432A432243C4
:1030A000324301F070410A43826011E08168DFF829
:1030B00028C0C7681B03A3F5805323432A4301EAB2
:1030C0000C0132430B43836007F070442243C2601B
:1030D0000020BDE8F0830000FF0F0FFF2DE9FF4F38
:1030E00082B00A1A00270F9C002A00DC421AA4EBC7
:1030F000030C12B2BCF1000F01DCA3EB040C06B20E
:1031000081424FF0FF311DB20FFA8CF005D34FF022
:10311000010CCDF800C0E24601E08A4600919C42D5
:1031200003D34FF0010BD94601E08B46D9464FF04F
:103130000001824207DB8946009102EBD271904682
:1031400001904C1024E08A464FF0000B00EBD07148
:10315000804601924C101BE0A9B2109BB0B2049AB9
:10316000FEF78EFF0198204404B2444508DB009826
:10317000A4EB08010CB2321805EB0B0016B205B235
:103180007F1C06EB0A0105EB09000EB205B23FB247
:103190004745E1DD06B0BDE8F08F00002DE9F041C4
:1031A0000646424F01220D4600EBC60000EB4610DA
:1031B000C4193F48611C92B007F074F948B93C4803
:1031C0002C2210AB294607F0E5FA30B1384807F059
:1031D0000BF8012012B0BDE8F0814FF0FF384046F7
:1031E000FFF7F6FA641C0094B7F8D833721C31A1CB
:1031F00001A806F089F80420FEF794FD042001A937
:10320000FEF766FE6FF47F00FFF7E2FAAA6930A1CD
:1032100001A806F079F80620FEF784FD062001A932
:10322000FEF756FEEA8A2FA101A806F06DF80720E6
:10323000FEF778FD072001A9FEF74AFE69683C22E7
:10324000E869B1FBF0F0B0FBF2F4B0FBF2F302FB83
:1032500014008A0A009029A101A806F055F8082058
:10326000FEF760FD082001A9FEF732FEFFF736F9F0
:10327000C0884FF6FF71032328A201EAC00140F283
:103280000710FEF7C1FD4046FFF7A2FA2548426845
:1032900025A101A806F038F80920FEF743FD092012
:1032A00001A9FEF715FE002094E70000A40300200A
:1032B000A02A0020506C6179696E672066696C6590
:1032C000202825642F2564293A202573000000005A
:1032D00053616D706C652072617465203A202564BD
:1032E00020487A004368616E6E656C73206E756D60
:1032F000626572203A2025640000000046696C6512
:103300002053697A65203A202564204B42205B25B2
:103310003032643A253032645D0000005B30303A70
:1033200030305D00B8000020566F6C756D65203A36
:1033300020256C750000000070B590F8383000EB67
:1033400001121832012B20D0234C012680F838605E
:10335000022380F83930158953680A2B43EA054562
:1033600015D0092B13D0137B45EA0363A1B1016883
:10337000CD69A5431D43CD61016813680B61516898
:103380000A291CD009291AD01EE0022070BDD3687A
:1033900003F07F432B43E9E70568696AA1431943BA
:1033A0006962016813688B6151680A2901D0092993
:1033B0000AD1D168026821F07F41916204E0D168AE
:1033C000026821F07F411162002180F8396080F8A5
:1033D0003810084670BD00000F0003FF70B50400F0
:1033E00004D094F83900002510B106E0012070BD2A
:1033F000204684F8385000F01EF8022084F8390086
:10340000D4E900030121026822F440321A43026029
:103410002068A368426B22F007021A4342632068C7
:10342000E368026C6FF30D021A430264E56384F8EB
:103430003910002070BD70472DE9F843002604467E
:1034400004270D4600964FF0030800680068C00787
:1034500027D000F08FFB81461FE04068009010F0FD
:10346000210F11D00098800603D5E06B40F00200D8
:10347000E0630098C00703D0E06B40F00100E06318
:1034800020682121816034E0681C06D0C5B300F0BB
:1034900071FBA0EB0900A8423CD82068416889076D
:1034A000DBD52068C169890602D4406A80063FD511
:1034B00000F060FB814637E04068009010F0290F73
:1034C0001FD00098000703D5E06B40F00400E063D4
:1034D0000098800603D5E06B40F00200E06300989E
:1034E000C00703D0E06B40F00100E06321682920B1
:1034F000886084F83970012084F83860BDE8F8836A
:1035000008E0681C10D02DB100F034FBA0EB0900DE
:10351000A84209D9E16B84F8386041F02001E163E9
:1035200084F839800320E9E720684168C906C3D5DB
:10353000226812210120916084F83900002084F86B
:103540003860DBE7F8B50446069894F83850012D4A
:1035500010D0012684F83860022584F83950009094
:103560002046FFF7E7FB2068016841F00101016098
:103570000020F8BD0220F8BD2DE9F041876D04461A
:1035800000F0F8FA064694F835000025022806D027
:1035900080206065012084F83450BDE8F081206807
:1035A000016821F0160101602068416921F0800165
:1035B0004161206C08B9A06C20B12068016821F03D
:1035C000080101602068016821F0010101600CE040
:1035D00000F0D0FA801B052807D92021616503205F
:1035E00084F8345084F83500D7E720680068C007B5
:1035F000EED194F85C203F2001219040B86084F81F
:10360000345084F835100020C7E770B504002BD083
:1036100094F83500022826D0206800252122016870
:1036200021F0010101602068056020684560206884
:1036300085602068C5602068056120684261204679
:10364000FFF7CEFB94F85C203F2191408160E56359
:1036500025646564A564E5642565656584F8355071
:10366000002084F8345070BD012070BD2DE9F8436E
:1036700004464FF00009644B0820CDF800904FF449
:103680001652A56D94F85C101B682E68B3FBF2F718
:1036900000FA01F131420FD021680A6852070BD5B8
:1036A0000A6822F004020A6094F85C108840A8605E
:1036B000606D40F00100606594F85C104FF0010807
:1036C00008FA01F0304208D021684969090604D59A
:1036D000A860606D40F00200606594F85C10042002
:1036E0008840304208D021680968890704D5A8605D
:1036F000606D40F00400606594F85C101020884014
:10370000304218D021680968090714D5A8602068DC
:103710000168490304D50068000308D5A16C07E0DF
:103720000168C90503D4016821F008010160216C1A
:1037300009B12046884794F85C1020208840304228
:1037400031D021680968C9062DD5A86094F83500E4
:1037500005282068016806D0490347D500680003A2
:103760001DD4616C1CE021F01601016020684169E4
:1037700021F080014161206C08B9A06C20B1206863
:10378000016821F00801016094F85C303F229A4002
:10379000AA6084F8349084F83580216D1FE0E16BD5
:1037A00009B120468847606D00282BD0606DC007A6
:1037B00014D0052084F835002068016821F001014B
:1037C00001600098401C0090B84203D8206800684F
:1037D000C007F6D184F8349084F83580E16C002974
:1037E00010D001B02046BDE8F04308470168C90584
:1037F000D5D4036823F01003036084F8349084F870
:103800003580CCE7BDE8F883000000202DE9F047C3
:10381000044600F0AFF9054664B14FF0000984F8A2
:103820003490022184F835102068016821F00101EC
:1038300001600EE00120BDE8F08700BF00F09AF9BA
:10384000401B052805D920216165032084F8350037
:10385000F1E720680068C007F0D1D4E90020D4E97E
:103860000251D4E9043C284304F1180519430843E4
:10387000116895E8E00140EA0C001C4B2843194010
:1038800040EA060040EA0700B8F1040F40EA0100F0
:1038900003D1D4E90B1319430843106020680126B3
:1038A000656A4069042D20F0070045EA00050CD147
:1038B000D4E90A01054341B12046FFF7A5FA20B13A
:1038C0004020606584F83560B4E720684561204693
:1038D000FFF786FA94F85C303F229A408260C4F881
:1038E000549084F835600020A5E700003F8010F078
:1038F0002DE9F041044690F8340000250128A66D1A
:103900000ED094F835C00127002084F83470BCF143
:10391000010F07D0022584F834002846BDE8F08165
:103920000220FBE7022784F8357060652046FFF728
:1039300095FA94F85C103F208840B06020680168D8
:1039400041F0160101602068416941F08001416148
:10395000206C20B12068016841F0080101602068F6
:10396000016841F001010160D7E7000070B504462D
:1039700000F000F90546601C02D0044800780444B9
:1039800000F0F8F8401BA042FAD370BD7C00002084
:103990002DE9F84FDFF89CE100224FF001084FF0CD
:1039A000030B4FF00F0A00BF0B6808FA02F4234024
:1039B000A34271D14D68022D01D0122D0FD1D5082F
:1039C0000E69570700EB8505A9462D6AFF0E0AFA16
:1039D00007FCBE4025EA0C052E43C9F820600F798C
:1039E000550006680BFA05FC07F0030726EA0C06EB
:1039F000AF40374307604E68012E05D0022E03D03A
:103A0000112E01D0122E0ED18668CF6826EA0C0640
:103A1000AF403743876046680F79A643C7F3001766
:103A2000974037434760C4688E6824EA0C04AE4070
:103A30002643C6604C68E40075D53F4C256845F4C4
:103A400080452560246822F00306950704F480442D
:103A500000943A4C2D0F2644D6F80848DFF8E0C011
:103A60000AFA05F7604524EA070401D100272EE091
:103A7000344FB84201D1012729E0334FB84201D178
:103A8000022724E0314FB84201D103271FE0304F15
:103A9000B84202D104271AE045E02E4FB84201D1C6
:103AA000052714E02C4FB84201D106270FE02B4F19
:103AB000B84201D107270AE0294FB84201D10827AF
:103AC00005E0284FB84201D1092700E00A27AF409E
:103AD00027437546C6F808784E68DEF80040F603BE
:103AE00024EA030400D51C43124E2C60361D4D6899
:103AF0003468AD0324EA030400D51C430D4F346041
:103B000008374D683C68ED0224EA030400D51C43E5
:103B1000084D3C600C354E682C68B60224EA03045C
:103B200000D51C432C60521C102AFFF43DAFBDE8A9
:103B3000F88F0000003C0140443802400030014052
:103B4000000002400004024000080240000C024055
:103B5000001002400014024000180240001C024005
:103B600000200240002402400AB18161704709042C
:103B7000FBE7000001488068704700007C000020DF
:103B8000D0F8BC0203F0FBBAD0F8BC0203F00CBBC7
:103B9000006805F051B8006805F052B801EB8101EA
:103BA00000EBC10090F85C00704701EB810100EB75
:103BB000C100C06C704710B5044690F8B8020128E7
:103BC00009D0012084F8B802206805F044F80020EC
:103BD00084F8B80210BD022010BD2DE9FE4F044646
:103BE0009A46DDE90D6094F8B832DDF83090012B8B
:103BF0001CD001EB81034FF0010B84F8B8B2002513
:103C000004EBC3035FEA026802F07F0C83F83D50C7
:103C100083F838A0A3F8400083F8391083F83F6098
:103C200083F83AC005D583F83BB004E00220BDE834
:103C3000FE8F83F83B5083F83C905346CDF80090BC
:103C4000CDE90160206805F067F884F8B852EEE726
:103C5000704700002DE9F04101EB81044FF00206AE
:103C600000EBC404DDF818E0DDE907C7BEF1000F82
:103C700084F83B2084F83F300CD084F8426000BFC9
:103C80004FF0000553B1012B2BD0022B0FD0032B8B
:103C900013D10CE0032584F84250F1E7BEF1010F87
:103CA0000BD152B9D7B9012284F8512003E0AAB14F
:103CB00094F85020AAB184F84260C4E911C784F88E
:103CC0005C50E56484F8391004F1380184F85D50E3
:103CD000027C0068BDE8F04105F0A0B894F85120DE
:103CE000E8E784F84250E8E72DE9F041044600682F
:103CF000064604F0ACFF01286FD1206805F0B4F946
:103D000000286AD0206805F0AFF9800203D5216849
:103D10004FF400104861206805F0A6F9C00203D5F1
:103D200021684FF480104861206805F09DF940013A
:103D300003D521684FF080604861206805F094F950
:103D4000800702D5216802204861206805F08CF9BF
:103D5000800010D5D6F8400420F02E00C6F84004AC
:103D60002046FFF711FF2068012105F061F9216865
:103D70004FF000504861206805F076F9C00102D587
:103D8000204601F0D6FF206805F06EF9000705D542
:103D9000204600F052F9216808204861206805F0AB
:103DA00063F9800124D5206805F034F80025074622
:103DB0004FF0010815E000BF05F00F0108FA01F00F
:103DC00038420DD006EB4510D0F80005E9B20004EA
:103DD000204603D501F076FD02E01CE001F08CFEE8
:103DE0006D1CA068A842E7D821684FF000704861B8
:103DF000206805F039F9C043C0060CD420688169F9
:103E000021F010018161204601F0F0FF20688169F6
:103E100041F010018161BDE8F08130B504008BB044
:103E200003D094F8B90218B108E001200BB030BDFE
:103E3000002084F8B802204600F024F8032084F81B
:103E4000B902206804F0A2FE04F11001684628229D
:103E50000D46FCF706FA94E80F0004F043FE2068D4
:103E6000012105F02CF9282229466846FCF7F9F9CA
:103E700094E80F0005F07AF8012084F8B9020020D8
:103E8000D4E700002DE9F043026800265E4C0225CD
:103E90005E4803210A274FF02009B2F1A04F87B0F6
:103EA00074D05B4B9A426DD1226842F001022260CD
:103EB000226802F001020592226842F002022260AA
:103EC000226802F002020592226842F00402226097
:103ED000226802F004020592226842F08002226009
:103EE00022688846CDE9009502F080026946CDE956
:103EF00002688146CDE90472FFF74AFD0821049764
:103F00008DE8620169464846FFF742FD43F62340CB
:103F100004978DE861003F486946FFF739FD0120AD
:103F20000497DFF8F48069468DE861004046FFF7AA
:103F30002FFD102004978DE8610038486946FFF78F
:103F400027FD042004978DE8610069464046FFF78D
:103F50001FFD206840F080402060206800F0804015
:103F60000590206840F00050206020680022062163
:103F700000F0005005904D2000F068FB5FF04D0010
:103F800000F056FB07B0BDE8F083FFE7226842F07F
:103F900001022260226802F001020592226842F0CA
:103FA000080222602268CDE9026102F0080205924F
:103FB0004FF4C0526946CDE900250497FFF7E8FCAD
:103FC000CDF8009069461648CDE90156FFF7E0FCB0
:103FD0000D48001D016841F080010160006800F09B
:103FE0008000059008481430016841F48041016068
:103FF00000680022062100F480400590432000F074
:1040000025FB4320BCE7000030380240000002409E
:10401000000004400004024000080240001C02406E
:10402000000C0240D0F8BC0203F066B9D0F8BC0224
:1040300003F066B9006805F029B8D0F8BC0203F0B7
:104040001DB910B5044690F8B80201280DD0012022
:1040500084F8B802206804F0C7FD2068012104F04C
:10406000ADFD002084F8B80210BD022010BD10B5CF
:10407000044690F8B802012809D0012084F8B8025B
:10408000206805F033F8002084F8B80210BD022043
:1040900010BD10B5040014D0242084F8410020681D
:1040A000016821F001010160204600F0D7F90020ED
:1040B000606484F84100206384F8420084F8400082
:1040C00010BD012010BD90F84100704770B504008C
:1040D00004D094F84100002510B106E0012070BD25
:1040E000204684F8405000F0BAF9242084F84100BA
:1040F0002068016821F001010160D4E9001020F07E
:10410000706008612068816821F400418160E06886
:1041100021680128A06806D040F404408860E06867
:10412000022803D006E040F40040F7E721684FF48E
:104130000060486020212068114A436813434360AF
:104140002068C26822F40042C26054F8106B0DCCA3
:10415000104340EA0320F06054F81C3CD4E900020C
:104160001043186054F81C0D026842F0010202600E
:10417000656484F84110256384F84250002070BDC6
:10418000008000022DE9FF4F83B0044690F8410003
:104190009A469346DDE91087DDF84890202874D1CF
:1041A0005FEA080072D0002F70D094F84000012818
:1041B0006BD0012084F84000FFF7DCFC01220646AA
:1041C00019230090D103204601F020FF002874D16C
:1041D0000025C4F82480222184F84110402084F86E
:1041E000420065646785534665635A4604992046D4
:1041F000CDE9009601F084FE28B1606C84F840504F
:1042000004285ED059E0618DFF2738484FF0807850
:10421000FF294FF0007A04D927853A46434600909B
:1042200005E0618D53462185009094F828202046B2
:10423000049901F0D5FE00224B4604212046009649
:1042400001F0E4FEC8BB2168606A496A421C6262F0
:104250000170208D401E0004000C2085618DA1F1AD
:10426000010161851DD1608DD8B100224B468021AE
:104270002046009601F0CAFEF8B9608DFF2806D9E5
:1042800027853A464346009507E02CE019E0608D0B
:1042900053462085009594F828202046049901F083
:1042A0009FFE608D0028C6D132464946204601F067
:1042B000D6FE40B1606C042803D0032007B0BDE8EF
:1042C000F08F0120FAE720682021094AC1612068A7
:1042D00043681340436084F8411084F84250002042
:1042E00084F84050EAE70220E8E70000002400805C
:1042F00000E800FE2DE9FF4F83B0044690F841002E
:104300009A469346DDE91087DDF84890202870D161
:104310005FEA08006ED0002F6CD094F840000128AE
:1043200067D0012084F84000FFF724FC01220646F4
:1043300019230090D103204601F068FE002854D1D3
:104340000025C4F82480212184F84110402084F8FD
:10435000420065646785534665635A460499204662
:10436000CDE9009601F004FE28B1606C84F840505D
:1043700004286CD039E0608DFF274FF08078FF284B
:104380004FF0007A04D927853A464346009505E068
:10439000608D53462085009594F828202046049986
:1043A00001F01EFE32464946204601F080FE18B15B
:1043B000606C04284BD018E0606A411C616221687F
:1043C00000788862608D401E6085208D401E00044C
:1043D000000C208521D1608DF8B100224B46802150
:1043E0002046009601F012FE28B1032007B0BDE878
:1043F000F08F2EE02BE0608DFF2804D927853A4608
:104400004346009505E0608D53462085009594F85D
:1044100028202046049901F0E3FD608D0028C1D1D9
:1044200032464946204601F01AFE0028C0D12068D5
:104430002021094AC161206843681340436084F821
:10444000411084F84250002084F84050CEE701200B
:10445000CCE70220CAE7000000E800FE7047704782
:104460000248816802781144816070477C00002016
:10447000074810B5016841F400710160032000F0A5
:1044800005F90F2000F006F800F0D1F8002010BD6B
:10449000003C024070B50D4D04464FF47A700C4A52
:1044A00029781268B0FBF1F0B2FBF0F001F0F6F9F8
:1044B00048B9102C07D200222146501E00F0C6F841
:1044C00000206C6070BD012070BD00007C000020E9
:1044D000000000202DE9F041044690F8A0001646A7
:1044E0000F4601281DD0012584F8A050022084F831
:1044F000A10006EB860000EBC600342204EB80002E
:104500003830FBF7AEFE32463946204601F0C2FF96
:10451000216800204D6284F8A15084F8A000BDE815
:10452000F0810220FBE790F8A10070472DE9F041EF
:10453000040004D094F8A100002518B107E0012080
:10454000BDE8F081204684F8A05000F06FF83648AE
:10455000022184F8A110012202CC8B6923F0704360
:104560008B6194E84A001943E3681E4354F8043D04
:1045700031439E693143996121688B6803408B60A8
:104580002168A68AA7698B683B4343EA06438B6090
:104590002168CB680340CB602168A38B276ACE6873
:1045A0003E4346EA0346CE6021680B6903400B6137
:1045B0002168A68CA76A0B693B4343EA06430B615B
:1045C00021684B6903404B612168A38D266B4869C4
:1045D000304340EA03404861236894F8351094F86A
:1045E0003600DE6A000406F07F46DE62236840EA99
:1045F000012094F83460D96A31430143D9622068BC
:10460000416B41F0040141632068416B41F00201BC
:1046100041632068816941F001018161C4F8A450BF
:1046200084F8A12000208BE700F800F07047704765
:10463000002809DB410900F01F028900012001F177
:10464000E0219040C1F80001704700000E4BF0B42B
:104650001B680D46C3F30223C3F10706042E00D9DD
:104660000426191D072901D2002300E0DB1E0124C6
:1046700004FA06F19C40491E2940641E99401440EA
:104680002143F0BC04F054BE0CED00E0064900F0FC
:10469000070210B54FF6FF040868044B204040EABB
:1046A00002201843086010BD0CED00E00000FA0580
:1046B0001848F8B5016841F0805101600068164C57
:1046C00000F080500090206840F480302060FFF7B8
:1046D00051FA4FF47A76054605E000BFFFF74AFA33
:1046E000401BB0420FD86068C003F7D5206840F483
:1046F00000302060FFF73EFA054606E0FFF73AFA81
:10470000401BB04201D90320F8BD60688003F5D595
:104710000020F8BD40380240007000404B4B30B5DF
:1047200049490160191D1C680A1DC4F388144460BE
:104730001C68C4F3014404611C68C4F30364C460CE
:104740001B68C3F3027383600B68C3F38813436170
:104750000B68C3F3014303623C4B0C687C3BC4F31E
:10476000036484610968C1F30271C1611468111D99
:1047700004F01F0444621468C4F3042484621468BF
:10478000C4F30144C462146804F44014C46314689C
:1047900004F4400404641C6804F4000444630C68DA
:1047A00004F4403444660C6804F4402484660C68C5
:1047B00004F44014C4660C6804F4400404670C68F4
:1047C00004F0030444640C6804F00C0484640C6872
:1047D00004F03004C4640C6804F0C00404650C6880
:1047E00004F4407444650C6804F4406484650C6807
:1047F000164D04F44054C4650C68143D04F4404460
:1048000004660C6804F0407444670C6804F080642B
:1048100084670C6804F00064C467096801F0805183
:10482000C0F8801019682B6801F4F81103F4407384
:104830000B4303631168C90101D4002101E04FF06B
:104840008071816330BD0000F1FFFF0084380240B9
:10485000F0B5444BB0F5002F404D4FF4801E404E54
:10486000A3F10404404F03F10402404984464FF091
:1048700000000DD0F44516D1D2F800C01CF4400C55
:104880003CD0BCF5800F4ED0BCF5000F0BD109E039
:10489000D2F800C01CF4401C06D0F44519D0BCF579
:1048A000001F00D13846F0BD08684002086800F0DB
:1048B0003F0002D4B5FBF0F001E0B6FBF0F0196860
:1048C0001B681468C1F30362C3F38813C4F30421A3
:1048D0003DE008684002086800F03F0002D4B5FBE4
:1048E000F0F001E0B6FBF0F0216823681468C1F332
:1048F000036204F01F01C3F3881328E00868400234
:10490000086800F03F0002D4B5FBF0F001E0B6FB10
:10491000F0F01C681B681168C4F30362C3F38813CA
:10492000C1F3042113E008684002086800F03F006A
:1049300002D4B5FBF0F001E0B6FBF0F02568236887
:104940001168C5F3036201F01F01C3F388134343E9
:10495000491CB3FBF2F0B0FBF1F0F0BD0024F40011
:1049600040787D01883802400080BB000438024056
:104970002DE9F84F04460078DFF824944FF0000644
:104980003746C0070ED0D9F8001021F40001C9F84D
:104990000010D9F80010626B1143C9F80010606B69
:1049A00000B90126FE4D2068843500030ED5E16B69
:1049B000286820F4401008432860E06BB0F5801FA1
:1049C00001D010B102E0012600E0012720684FF479
:1049D000800BC0020CD5216C286820F440000843ED
:1049E0002860206C584501D1012601E000B901275B
:1049F0002068C10100D50126800666D5E848383018
:104A0000016841F0805101600068DFF898A300F070
:104A100080500090DAF8001041F48071CAF800105C
:104A2000FFF7A8F8804605E0FFF7A4F8A0EB080020
:104A300064287DD8DAF80000C005F5D5DFF860837A
:104A400008F16808D8F8000010F440702AD0218ED0
:104A500001F44071814225D0D8F80010D8F8002028
:104A600021F4407142F48032C8F80020D8F80020C8
:104A700022F48032C8F80020C8F80010D8F80000EE
:104A8000C0070FD0FFF776F8824607E0FFF772F80D
:104A9000A0EB0A0141F288308142CAD8D8F8000060
:104AA0008007F3D5206BC0F3012103297ED0D9F80C
:104AB000001021F4F811C9F80010228ED8F8001067
:104AC000C2F30B021143C8F800102078C00607D5C6
:104AD000286820F0807028602868A16B084328604F
:104AE0002188AF488830490405D5626E016821F4F9
:104AF0004031114301602188090405D5A26E016887
:104B000021F44021114301602168C90305D5E26EFB
:104B1000016821F44011114301602168890305D522
:104B2000226F016821F4400111430160217800E007
:104B300018E1490605D5626C016821F003011143B3
:104B400001602178090605D5A26C016821F00C01ED
:104B5000114301602188C90505D5E26C016821F087
:104B60003001114301602188890505D5226D016856
:104B700021F0C001114301602188490505D5626D0E
:104B8000016821F44071114301602188090505D5B0
:104B9000A26D016821F44061114301602188C904BC
:104BA00007D5E26D016821F4405100E041E0114376
:104BB00001602188890405D5226E016821F44041F5
:104BC000114301602168490205D5A26F016821F0F7
:104BD00080611143016021684FF0006A890209D5A4
:104BE000E26F016821F0006111430160E16F5145FE
:104BF00000D1012721680A0700D50127490305D5FF
:104C0000626F016821F0407111430160216809025F
:104C100006D5D4F88020016821F08051114301604D
:104C2000DFF88491012E0ED02068B0F1007F0AD009
:104C30008FE05E4AD9F80030104023F4F8120243A6
:104C4000C9F8002039E7D9F800004E4620F080600E
:104C5000C9F80000FEF78EFF804605E0FEF78AFFE8
:104C6000A0EB080064287DD830680001F6D42178D4
:104C70004B487C30C90712D0616B81B9237A6268D6
:104C80000168D0F800C09201C1F3014142EA01423B
:104C9000CCF3036142EA016141EA037101602168DA
:104CA0000A0303D5E26BB2F5801F04D0C9021AD5FE
:104CB000216C594517D16368016894F80CC00268EB
:104CC0009B01C1F3014143EA0141C2F3027241EA8F
:104CD0000C6141EA027101602968626A21F01F01DA
:104CE000521E114329602168C90110D5238A6268C8
:104CF0000168D0F800C09201C1F3036142EA0342A7
:104D000042EA0162CCF3027142EA0171016021685A
:104D100089010CD56168228A237B94F808C0890137
:104D200041EA024141EA036141EA0C7101603168E4
:104D3000B04641F080613160FEF71CFF064604E09A
:104D4000FEF718FF801B64280CD8D8F8000000017B
:104D5000F6D56FB3D9F800004E4620F08050C9F860
:104D6000000000E079E0FEF705FF074605E000BF20
:104D7000FEF700FFC01B64286FD83068C043800076
:104D8000F6D50748216880300A0301D5E26B1AB1D5
:104D9000C90225D5216C19BB63690168277E08E02B
:104DA000083802400070004000380240FFFCFF0F4E
:104DB0005AE00268C1F301419B0143EA0143C2F397
:104DC000027143EA076242EA0171016029686FF0EB
:104DD000FF03A26A21F4F85103EB02221143296078
:104DE0002168890212D5E16F51450FD1238C626988
:104DF000016807689201C1F3036142EA034242EA93
:104E00000162C7F3027142EA01710160217809076A
:104E100016D561690268D0F800C08B01277FC2F304
:104E20000362CCF3014143EA014141EA026141EAF4
:104E3000077101602868E16A20F440300843286067
:104E4000306840F080503060FEF794FE044607E082
:104E5000FEF790FE001B642802D90320BDE8F88FFE
:104E60003068C0438000F3D40020F7E72DE9F04715
:104E700005000F4663D0444E306800F00F00B84282
:104E800009D2306820F00F0038433060306800F0FD
:104E90000F00B84253D128683C4C810712D5400717
:104EA00003D5206840F4E05020602878000703D53F
:104EB000206840F460402060A968206820F0F0007D
:104EC000084320602878C0072AD03049686808392C
:104ED000012810D00968022810D0890700292EDA8D
:104EE000216821F0030101432160FEF743FE804663
:104EF00041F288390DE009688903EFE78901EDE7A0
:104F0000FEF738FEA0EB0801494502D90320BDE8B1
:104F1000F0876868216801F00C01B1EB800FEFD1D8
:104F2000306800F00F00B8420BD9306820F00F0055
:104F300038433060306800F00F00B84201D00120E3
:104F4000E5E72878400705D5E968206820F4E050B7
:104F5000084320602878000706D52869216821F4D5
:104F6000604141EAC000206000F016F82168084A5C
:104F7000C1F30311515CC840064908600F20FFF7D8
:104F800089FA0020C3E70000003C024008380240D4
:104F900030C4000800000020154910B51548096804
:104FA00011F00C0213D01449042A0FD0082A0ED194
:104FB0000F4C241F2268236802F03F025B0207D5D2
:104FC0002068C0F38810A0FB010106E0084610BD70
:104FD0002168C1F38811A1FB00010023FBF710F940
:104FE0002168C1F30141491C4900B0FBF1F010BD3B
:104FF000083802400024F40040787D012DE9F84F84
:1050000005004FF000076ED02878DFF81C93A9F157
:10501000040AC007AAF104044CD0D9F8001048468D
:10502000C1F38101012908D00068C0F38100022882
:105030000AD1DAF80000400206D52068800339D58D
:1050400068680028DFD035E06868B0F5803F0BD095
:1050500010B1B0F5A02F11D0206820F4803020606E
:10506000206820F4802002E0206840F48030206036
:10507000686890B1FEF77EFD06460AE0206840F4BD
:1050800080202060F0E700BFFEF774FD801B6428DD
:1050900072D820688003F7D50CE0FEF76BFD06465A
:1050A00005E000BFFEF766FD801B6428F0D820688D
:1050B0008003F7D42878800742D5D9F800104846F5
:1050C00011F00C0F08D00068C0F3810002280BD14A
:1050D000DAF80000400207D42068800718D5E86895
:1050E000012800D114E01CE1E8680028206817D0EE
:1050F00040F001002060FEF73DFD064605E000BFE0
:10510000FEF738FD801B0228C2D820688007F7D53B
:105110002869216821F0F80141EAC00020600FE011
:1051200020F001002060FEF725FD064605E000BFE7
:10513000FEF720FD801B02281ED820688007F7D4C8
:105140002878000729D5784869696C30002980469D
:10515000016812D041F001010160FEF70BFD064627
:1051600005E000BFFEF706FD801B022804D8D8F832
:1051700000008007F6D510E089E021F00101016010
:10518000FEF7F8FC064604E0FEF7F4FC801B02285C
:105190007DD8D8F800008007F6D4287840076BD572
:1051A000DFF8848108F13808D8F80000C0000BD47B
:1051B000D8F8001041F08051C8F80010D8F800006D
:1051C000012700F08050009058480168C90512D4AA
:1051D0000168834641F480710160FEF7CBFC06460E
:1051E00005E000BFFEF7C6FC801B64284FD8DBF843
:1051F0000000C005F6D54C4EA868683601280AD0D4
:1052000008B1052811D0306820F001003060306806
:1052100020F0040002E0306840F001003060A8682F
:10522000A0B1FEF7A7FC83460CE0306840F0040014
:105230003060F0E7FEF79EFCA0EB0B0141F28830F6
:10524000814266D830688007F4D50EE0FEF792FC04
:10525000834607E0FEF78EFCA0EB0B0141F288309D
:10526000814256D830688007F4D42FB1D8F80010A6
:1052700021F08051C8F80010A869C8B3D9F800100F
:10528000C1F3810102294CD00228206800E040E0EF
:1052900020F08070206003D0FEF76CFC05463BE0F8
:1052A000FEF768FC064604E0FEF764FC801B02285B
:1052B0002FD820688001F7D4D5E90962D5E9070124
:1052C0001B4B570895F82C20084303EB074343EA90
:1052D0008611084340EA026040F00050CAF800001E
:1052E000206840F080702060FEF744FC054606E030
:1052F00015E000BFFEF73EFC401B022809D82068DD
:105300008001F7D50BE000BFFEF734FC401B0228FC
:1053100002D90320BDE8F88F20688001F4D4002072
:10532000F8E70120F6E7000008380240007000406E
:105330000000FFFF90F87C1001290CD0012180F8BB
:105340007C10016800220B6823F400330B6080F8A6
:105350007C20104670470220704790F87C1001298D
:1053600014D0012180F87C1001680A6842F40032F0
:105370000A6001680A68D20303D40A6842F48032E2
:105380000A60002180F87C100846704702207047B0
:1053900070B5044690F87C00002501280ED0012647
:1053A00084F87C602068016821F400310160E06EBF
:1053B000A0B194F87D10122902D00FE0022070BD38
:1053C000FEF7DAF850B1E06E406D802806D0D4F8D0
:1053D0008000012540F08000C4F88000206F88B173
:1053E00094F87D1022290DD1FEF7C6F850B1206F38
:1053F000406D802806D0D4F88000012540F0800060
:10540000C4F88000204601F09DF920680021426820
:1054100042F00802426084F87D60284684F87C10DF
:1054200070BD70B504001BD0022084F87D000025FB
:105430002168C01E0D6121688861204601F082F953
:105440002068416841F008014160204600F01CF9E5
:10545000C4F8805084F87D50002084F87C5070BDE2
:10546000012070BD70B50B4800F016F805460948DC
:10547000843000F011F8022D044601D0122D01D124
:10548000FCF7C4FA022C01D0222C01D1FCF738F928
:1054900070BD00007478002090F87D007047000017
:1054A0002DE9F0474FF000060400354604D094F88B
:1054B0007D00B14618B107E00120BDE8F087204625
:1054C00084F87C9000F0E1F8022084F87D0020460A
:1054D00001F038F9E06838B1012802D0022803D180
:1054E00001E0102600E02026A16861B1012906D064
:1054F00002294FF4006005D0032904D10EE04FF4D7
:10550000806500E005465C495B4A20682031904296
:1055100001D0884205D15848001F03E046F001063B
:10552000F0E756480660E06948B3236800209342DC
:1055300001D08B4203D14FF40020FFF789F94F4A85
:105540002168121D914203D04C4A2432914203D16A
:105550004FF48010FFF77CF9E16900EB80000A222C
:1055600040004902B0FBF1F0B0FBF2F3B0FBF2F106
:10557000216202FB1300082801D9491C21626068DE
:105580004FF40078E8B3022871D0E06B012801D015
:105590004FF000082068DFF8E8C06FF0FF01394ED7
:1055A0004EF20F0203684FF2200703EA0C03036078
:1055B000236B60681843D4E90D3C43EA0C0318439D
:1055C000636A40EA08002843D4E904C51843236805
:1055D00040EA0C002843258CD3F800C040EA05556A
:1055E000484645EA0C051D6023685D684FF0010CD4
:1055F00095435D60D4F80080D8F80420A3691A436D
:1056000000E034E0D4E90A352B431A43C8F80420FB
:105610002268936833409360A36C226D256C1A4313
:10562000E36C6D1E2B43656C1A43236801EB052563
:105630002A439D682A439A6054F8542BD3683B4010
:10564000D36094E86400A78954F8543D2A4301EBE1
:10565000062141EA0741DD680A432A43DA60C4F8BB
:10566000800084F87DC084F87C00002025E7E06B92
:1056700001288DD08EE7000004580140005C0140F5
:1056800010C005FF0080F8FF7047704770B50446F2
:1056900029B122B194F87D00012802D043E0012015
:1056A00070BD94F87C0001283DD0012384F87C3043
:1056B00061660025A4F868202220A4F86A20C4F8B6
:1056C000805084F87D00216F18480864216F1848C5
:1056D000C863216F1748C864206F05652168B4F856
:1056E0006830626E1C31206FFEF702F910B184F849
:1056F0007C50D4E720680168C90303D4016841F4F1
:10570000803101600021204601F03CF821680A69DF
:10571000104308612068016841F4003101600020F5
:1057200084F87C5070BD022070BD0000F566000852
:10573000BB6600087766000810B5FCF71BF910BDC2
:1057400010B5FBF7DFFF10BD70B5044629B122B1DB
:1057500094F87D00012802D043E0012070BD94F848
:105760007C0001283DD0012384F87C30616600254F
:10577000A4F868201220A4F86A20C4F8805084F8A5
:105780007D00E16E18480864E16E1848C863E16E58
:105790001748C864E06E05652268B4F86830616E29
:1057A0001C32E06EFEF7A4F810B184F87C50D4E708
:1057B00020680168C90303D4016841F480310160A5
:1057C0000021204600F0DEFF21680A6910430861CD
:1057D0002068016841F400310160002084F87C50A9
:1057E00070BD022070BD00003B670008FF66000826
:1057F0007766000810B5FCF76DFA10BD10B5FCF720
:1058000007F910BD70B504000D4603D094F82C00C4
:1058100010B107E0012070BD002084F82D00204663
:1058200000F011F8022084F82C002068211DFDF7FB
:10583000C9FBD4E900022946FDF70AFC012084F8DF
:105840002C00002070BD704710B5044690F82C0065
:10585000022809D0022084F82C002068FDF7E1FB23
:10586000012084F82C00002010BD000070B5044613
:1058700090F82C000D4602280DD0022084F82C0050
:105880002068FDF7D4FB2868022805D05FF00100EE
:1058900084F82C00002070BD0520F9E7401EB0F10F
:1058A000807F10B501D3012010BD4FF0E02460616E
:1058B0000F21601703F03CFD0020A061072121614A
:1058C00010BD00002DE9F05F074600680E464FF05E
:1058D000040B00EB4114D4F8082501EB86004FF0CF
:1058E000050A4FF0100807EBC005510708D5C4F8AA
:1058F00008B5D4F80C0540F00200C4F80C0534E0FB
:10590000D4F80805800603D52020C4F808052CE04B
:10591000D4F808054FF00809000710D5D4F80C3565
:1059200043F00203C4F80C3585F85DA0C4F808857F
:10593000C4F808953146386803F08DF915E0D4F8BD
:105940000805400511D5D4F80C0540F00200C4F854
:105950000C053868314603F07EF94FF48062C4F8D4
:10596000088585F85D90C4F80825D4F808058005F9
:105970000ED5D4F80C0540F00200C4F80C053868C8
:1059800004F5A164314603F066F94FF4007090E02D
:10599000D4F8080500210122C00738D0386930B199
:1059A000D4F81035A86CC3F31203C01AE86485F864
:1059B0005D20A965C4F8082595F83F0020B10228AC
:1059C00002D003280FD01AE0D4F80C0540F00200F2
:1059D000C4F80C05386804F5A164314603F03BF9BE
:1059E000C4F800800BE0D4F8000540F00050C4F883
:1059F00000053146384685F85C20FEF729F995F810
:105A0000500080F0010085F85000BDE8F09FD4F808
:105A10000805800736D5D4F80C05022320F00200D3
:105A2000C4F80C0595F85D00012808D0052809D0B8
:105A300006280AD0082808D0032820D016E085F8C8
:105A40005C2013E085F85CA010E0A86D401CA86500
:105A5000032814D9A96585F85CB000BFD4F8000507
:105A600020F0804040F00040C4F80005C4F808353C
:105A7000314695F85C203846FEF7EAF8C5E785F828
:105A80005C30EBE7D4F80805000614D5D4F80C0513
:105A9000062140F00200C4F80C05A86D04F5A164CD
:105AA000401CA86585F85D103146386803F0D3F8CE
:105AB00080202060A9E7D4F80805C006A5D595F890
:105AC0003F00032803D020B1022802D011E0A965CD
:105AD00005E0A965386960B9032085F85D00D4F850
